:020000040000FA
:10000000206A80EF0EF00000F2AC05D0F2B206D00C
:100010009E927B2B1100B7EC08F0CCD2949E829E6E
:10002000326A090E336EC8EC0BF031323150321A9D
:10003000332EF9D7C8EC0BF03330321AC8EC0BF082
:10004000D8A0326A352AF2921100F926450C690CC3
:10005000660C660C650C6C0C200C320C2E0C300CF3
:10006000690C200C300C370C2F0C320C300C300C7F
:10007000360C000C4B50030BD8A402D0938201D055
:10008000948E4B50030BD8A408D03550D8B40ED062
:100090003250766F3150736F13D382BE07D0F29E09
:1000A000948E939281921EEC08F08DD34850D8B470
:1000B00003D00408D8B0E5D779AB0DD09392949EC5
:1000C0008192829E3850395CD8A402D0799BD2D7D5
:1000D0002EEC0CF0CFD71C50D8A402D0A4A00DD089
:1000E0009392949E8192829E5DEC0CF01F6E736FD2
:1000F0007AAF8ED08DEC07F0BDD77B514B5CD8B476
:10010000C0D79392949E8192829EF29EC80E7B5D90
:10011000D8A01FD07B6F4B6EF28E3FAE09D06F8898
:100120000DEC09F03950386E799B3F9E4AEC0BF08C
:10013000372A3750030BD8A40AD048500408D8B047
:1001400002D0486A209820A8798F20A6798D010EC8
:10015000296E7B514B6EF28E4850D8A48BD74BA0A2
:1001600089D74BB212D077EC09F03EAC02D051ECFB
:100170000BF079AD05D0799D0FDBF00EC2EC07F0E6
:1001800079AF03D0799F19EC05F078AD73D779B7C3
:1001900026D079B509D079A36DD74E2E05D00A0E99
:1001A0004E6E4F2A5EEC05F0801C746F74311F0B8D
:1001B000746F265CD8B404D07451266EFE0E09D03C
:1001C000821C1F0B746F275CD8B454D77451276EF0
:1001D000FF0E406E2AEC08F03AEC05F08AD14C2E66
:1001E00049D74A504C6E2AEC08F05AEC08F0746B70
:1001F00026B8748327B874817451C2EC07F026388E
:10020000F00B746F27500F0B7411C2EC07F071D113
:10021000788F799773512408D8A086D173372E0E22
:100220007327020ED8B0010FFA6E7351F96E7CD1AC
:100230007BD17AD120D03ED046D053D078D07BD05D
:100240007CD086D059D190D098D0A2D0AFD0B0D0A9
:10025000B1D0B1D0B2D0B3D0B4D0B6D0C5D0CBD05D
:10026000CBD0D7D0D8D0E2D05FD15ED15DD1E2D0B3
:10027000FAD042D146D1F60EC2EC07F0030EC2EC22
:1002800007F04950C2EC07F02250C2EC07F0E86AD0
:1002900082BA010EC2EC07F0A80E27EC08F0C2ECFF
:1002A00007F0A90E27EC08F0C2EC07F02A50C2ECC8
:1002B00007F0E0D6226AB8EC07F01A08D8A01ED1E1
:1002C0007351A80F19D0DDEC07F0B8EC07F0731DDF
:1002D000D8B411D073518F08D8A010D17351000F2A
:1002E0000BD0DDEC07F0B8EC07F00708D8A006D17A
:1002F0007351900F01D0C20E726FB8EC07F0A6B226
:10030000FED772C0A9FF73C0A8FFA69EA69CA684B4
:10031000D890F2BED880F29E550EA76EAA0EA76E98
:10032000A682D8B0F28E00000000A694A3D6B8EC46
:1003300007F0286E9FD6789709D0660EE96E000EFA
:10034000EA6E040EB1EC07F07CDB788779913FD13F
:10035000B8EC07F072DB6E6FB8EC07F06EDB6F6F16
:100360006C6B6D6B798133D1B8EC07F066DB5C6E3A
:10037000B8EC07F062DB5D6E14D078A77BD679B756
:1003800079D6F70E406E819E1DEC06F0818E72D6F6
:10039000B8EC07F0620EE96E000EEA6E040EB1ECE6
:1003A00007F0BAEC0AF0C7EC0AF064D6788962D696
:1003B000789960D65FD6789B5DD6789F5BD6798535
:1003C00001D07995799323D078AD54D679B352D6AC
:1003D00079B750D6801C266E26301F0B266E821CE5
:1003E0001F0B276EFD0EF5D6B8EC07F026DB4A6E24
:1003F0004C6E79870CD03ED6500EE96E000EEA6E38
:10040000060EB1EC07F0566A576879837995788DB6
:1004100031D6789D2FD6160EE96E000EEA6E060EC6
:10042000B1EC07F04B6A98EC0AF024D62AEC08F0FD
:1004300013DB5FD0B8EC07F03B6EB8EC07F03A6E18
:10044000B8EC07F02C6E3A103B10D8B402D07A8F7B
:1004500011D6DDEC07F0F3EC07F0F9EC07F0D86A01
:10046000EA6A81EF0EF0B8EC07F0746FEA6A73B1D4
:10047000EA2AB8EC07F0756FE96E2AEC08F0F60E80
:10048000C2EC07F0200EC2EC07F074BF18D0060EC5
:10049000726F74512108D8B409D0EF50C2EC07F044
:1004A000E92AD8B4EA2A722FF8D723D0755127EC5D
:1004B00008F0C2EC07F0752B722FF8D71AD0749F92
:1004C000030E726FF86A7451F76E7551F66E09007B
:1004D000F550086E0900F550096E0950C2EC07F09E
:1004E0000850C2EC07F0752B752BD8B4742B722F03
:1004F000E9D72DEC08F0BED5B8EC07F0B8EC07F062
:10050000B9D5B8EC07F0D8A406D0B8EC07F01BECCE
:100510000EF03E9CAFD52C6E2C1CD8A402D03E8C85
:10052000EDD73E8E7A8FA6D5739F73511B08D8A046
:10053000A1D57337440E7327050ED8B0010FFA6E9C
:100540007351F96E1AD096D595D594D593D592D589
:1005500091D53FD049D048D047D062D06CD08AD511
:1005600089D577D076D086D57BD084D580D07FD002
:1005700081D580D57FD57BD08DD0B8EC07F0010830
:10058000D8A478D5786B796B7A6B3E6A3F6A566AE5
:10059000486A296A386A396A829A2AEC08F0E4ECD7
:1005A0000DF020B8F9EC07F0798F20A603D0DDEC30
:1005B00007F0798D46DAC20E27EC08F00208D8B4AD
:1005C0007A874AEC0BF03E8C7985788D788F788B22
:1005D00051D5F60EC2EC07F0070EC2EC07F028501A
:1005E000C2EC07F0050E5FD0F60EC2EC07F079B151
:1005F0000FD078B702D0080E53D0090EC2EC07F026
:10060000660EE96E000EEA6E040E2DDA020E4BD075
:100610000A0EC2EC07F06E51C2EC07F06F5115D014
:10062000F60EC2EC07F00B0EC2EC07F0010EC2ECA6
:1006300007F0010E0AD0F60EC2EC07F00C0EC2EC69
:1006400007F05C50C2EC07F05D50C2EC07F0040EFE
:100650002AD0F60EC2EC07F00F0E78A9100E20D0AB
:10066000F60EC2EC07F0E86A78AB120E19D0F60E5F
:10067000C2EC07F079B304D0140E79A5150E10D092
:10068000190EC2EC07F0500EE96E000EEA6E060E6F
:10069000EAD9F0D4F60EC2EC07F0E86A78AD1A0E8B
:1006A000C2EC07F0060EC5EC07F0E4D47EEC07F0D0
:1006B000EDEC07F002D0EFEC07F0F80E7A1767D0F8
:1006C000939281923550356A0108D8A4F4D776AF59
:1006D000F2D720867351AA08D8B45BD07351FC08B6
:1006E000D8B4E4D77351FE08D8B4E0D77AA741D084
:1006F0007AB50DD07351E008D8A402D07A81BAD46B
:100700007351E108D8A41FD07A837A85B3D47AB321
:1007100007D07351F008D8B429D07A937A8137D0B2
:100720007351F008D8B422D073517708D8A42ED0D2
:1007300079B707D0819C4F0E79B98009C2EC07F0D8
:10074000818C7A9523D07351F008D8B40FD07AA158
:1007500004D073511208D8B419D079B90ED073519E
:100760002F5CD8B413D073512F6E07D02F6A7989BC
:1007700081D47351F008D8B4FAD779B707D03EAC1A
:1007800002D029EC0DF0819CD4DA818C7A91799990
:1007900071D402D8208C6ED4E7EC07F07AA7E5EC90
:1007A00007F0020EDEEC07F0F1EC07F061EC0BF065
:1007B000818C12003ED95ED4F5EC07F04850040855
:1007C000D8B064D057D4949E829E76AFF5D7485067
:1007D000D8A409D020887351AA08D8B425D1735160
:1007E000FC08D8B4E7D74850746F482A7437FE0E17
:1007F0007427070ED8B0010FFA6E7451F96E49D004
:1008000051D054D05AD036D435D434D41BD032D46D
:1008100031D418D02FD42ED430D016D02ED016D01C
:100820002CD016D017D026D417D01DD026D00CD05F
:1008300024D00AD022D00CD00DD01CD41AD017D07E
:100840001ED021D0FF0E1CD0C80E1AD0640E18D0B6
:10085000500E16D0F20E14D0789378957351030889
:10086000D8B478830AD078B302D0210E486E280E0F
:1008700007D073510408D8B47885F30E01D0F40E74
:10088000E1DB3AEF00F065EC0BF0818E486A3AEF5D
:1008900000F07351446EC00BD8A4F8D744B63AEFB9
:1008A00000F0F4D77351456E3AEF00F07351466E85
:1008B00078A305D0476A3AEF00F07351476E486A53
:1008C000236A44B0238244B223802350F809406E47
:1008D000436A416A426A44A403D0940EB8DB436E73
:1008E000459E44B8458E45506A6F78A721D0776BF6
:1008F00045BE771F5F267751D8B0773D5E265EBE36
:1009000016D0D4EC0AF06651625DD8B403D0D8A0FA
:100910000FD006D06751635DD8B402D0D8A008D0FC
:100920006751636F6651626FBAEC0AF001D08FD8DD
:10093000469E44BA468E78B902D0461E462A465094
:100940006B6F78A721D0776B46BE771F61277751F1
:10095000D8B0773D602760BF16D0DFEC0AF0685151
:10096000645DD8B403D0D8A00FD006D06951655DBE
:10097000D8B402D0D8A008D06951656F6851646FAF
:10098000C7EC0AF001D05ED878A31CD047B609D0D6
:1009900047500F0BD8B40BD0920E47A006D0910E43
:1009A00004D0930E47A001D0900E51DB416E78A584
:1009B00009D047A802D0950E03D047AA03D0960EBF
:1009C00046DB426E78AB3AEF00F079B73AEF00F0D1
:1009D000819E33D928A00ED023502418010BD8B4FF
:1009E00002D023B017D023502418020BD8B402D061
:1009F00023B210D028A213D023502418010BD8B44E
:100A000002D023A007D023502418020BD8B407D05B
:100A100023B205D0231C256EF70E406E0ED9818EB1
:100A20002350246E3AEF00F002DB03D8208E3AEF19
:100A300000F0050E486EFF0E05D30009D8B4010E74
:100A4000120005D8616B606B656B646B12005F6AA6
:100A50005E6A636B626B1200FC0E94DA160EE96E2E
:100A6000000EEA6E060E726FEF508CDAE92A722FD2
:100A7000FBD712004050FD08D8A405D082DA2650DA
:100A800017D8275015D04050FE08D8A409D079A314
:100A900004D0740E26A8F40E75D273DA265008D04E
:100AA00079A304D0750E27A8F50E6CD26ADA275008
:100AB000746F74B9748F7499745164D256B00FD036
:100AC00026505718010BD8B40AD026A008D056805B
:100AD00056984F50596E5150D8B401D05CDA56B286
:100AE0000FD026505718020BD8B40AD026A208D02F
:100AF0005682569A4F50596E5150D8B401D04DDAA3
:100B000056B40FD026505718040BD8B40AD026A4D8
:100B100008D05684569C4F50586E5050D8B401D0CF
:100B20003EDA56B60FD026505718080BD8B40AD064
:100B300026A608D05686569E4F50586E5050D8B4B0
:100B400001D02FDA56A01CD026A005D059504F5CFA
:100B5000555CD8B003D05690569812D056B806D0EF
:100B600059504F5C515CD8B00BD005D05B504F5CF6
:100B7000535CD8B005D0568056884F505B6E0BDA68
:100B800056A21CD026A205D059504F5C555CD8B057
:100B900003D05692569A12D056BA06D059504F5C8E
:100BA000515CD8B00BD005D05B504F5C535CD8B0D3
:100BB00005D05682568A4F505B6EEFD956A41CD092
:100BC00026A405D058504F5C545CD8B003D056943E
:100BD000569C12D056BC06D058504F5C505CD8B0D2
:100BE0000BD005D05A504F5C525CD8B005D056841B
:100BF000568C4F505A6ED3D956A61CD026A605D077
:100C000058504F5C545CD8B003D05696569E12D0C4
:100C100056BE06D058504F5C505CD8B00BD005D0B3
:100C20005A504F5C525CD8B005D05686568E4F5005
:100C30005A6EB7D92650576E12004050F708D8B4F4
:100C40005AD078B707D079B105D09BD96A519AD9D3
:100C50006B5198D979A12AD06A516C276CBF07D003
:100C60006E516C5DD8B00AD06C6F9BD9F9D76E51BC
:100C70006C25D8B003D06C6F92D9F9D76B516D2722
:100C80006DBF0AD06F516D5DD8B010D06D6F78A96F
:100C900084D978B980D9F6D76F516D25D8B006D0F0
:100CA0006D6F78A978D978B978D9F6D728A412D0F9
:100CB00023502418010BD8B404D0750E23A0F50ED0
:100CC00061D923502418020BD8B404D0740E23A287
:100CD000F40E58D94350D8B401D064D9970EB7D97F
:100CE000726F4150D8B403D05DD9722FFAD74250F9
:100CF000D8B4120057D145D9746B23502518010B75
:100D0000D8B404D023B0748123A074832350251851
:100D1000020BD8B404D023B2748523A27487235065
:100D2000256E74512FD9620EE96E000EEA6E040E24
:100D30009AD673518F08D8A012003E907AA734D06B
:100D40007AB115D073511108D8A405D07A9D79A92C
:100D50007A8D380E68D0DE0E7325F66E100ED8B080
:100D6000010FF76E000EF86E0800F5500BD05E0E06
:100D70007325F66E120ED8B0010FF76E000EF86EE6
:100D80000800F550736F7508D8A04ED0BE0E7325BD
:100D9000F66E130ED8B0010FF76E000EF86E080055
:100DA000F550D8B441D0736FC8EC0CF07ABD39D08F
:100DB000000E7325F66E170ED8B0010FF76E000EF9
:100DC000F86E0800F550726F72AF726B72BF3E80A2
:100DD0003FA812D0000E7325F66E1B0ED8B0010F7F
:100DE000F76E000EF86E0800F550D8B405D0723BCF
:100DF000729D72B5728D17D03FAA13D0000E732565
:100E0000F66E190ED8B0010FF76E000EF86E0800DE
:100E1000F550D8B406D072337233729D72B9728DA8
:100E200002D0735114D9736FEFEC0CF079B926D05E
:100E30003EA023D03E8A72AD03D01D0E3EA8A2D89C
:100E400072B107D0AA0E3EB49DD8B60E3EB29AD863
:100E50000AD02A0E3EA496D873516008D8B403D0A5
:100E6000360E3EA28FD872B304D0B80E3EB68AD8E2
:100E700005D0380E3EA686D801D040D87351D8B4DC
:100E8000120073AF0BD0739F73517508D8A0120076
:100E9000F60E78D8050E76D8050E77D873517508FA
:100EA000D8A01200735179B98009706F3A08D8B48C
:100EB0007ED8705167D879A912003EA012003E9AE0
:100EC00072AD03D09D0E3EA85DD872B107D02A0E38
:100ED0003EB458D8360E3EB255D806D0AA0E3EA41F
:100EE00051D8B60E3EA24ED872B304D0380E3EB6DC
:100EF00049D81200B80E3EA645D812003EAA1200EC
:100F00003E501E0BD8B412003E9A9D0E3BD8AA0E3E
:100F100039D8B60E37D8B80E35D03EBE1AD03BB051
:100F200004D0EA6A3AAE11D004D0010EEA6E3ABE9D
:100F30000CD03A50600BD8B408D03A50E96E700B20
:100F40007008D8B402D07351EF6E3A2AD8B43B2A55
:100F500003D0735114EC0EF02C2E12003E9E7A9F9B
:100F60001200726F05D8EF6EE92A722FFBD71200BC
:100F70001C50D8A402D0A4A0FED75DEC0CF0736F77
:100F80001200405022EC0AF01200726FE86AFADF99
:100F9000722FFCD71200480E05D0500E03D04B0E16
:100FA00001D04D0E736FEEDF73518009EBD7010E48
:100FB000781B020E78B1060E01D0070E7AB7010930
:100FC000776FED0E18D8775116D0F80E14D0F00EBA
:100FD00012D8030E7AB7020E0ED0FF0E0CD0FE0E02
:100FE00020D0F40E08D0F50E06D0FE0E2BD0F40E55
:100FF0001DD0F50E1BD015D8020E726F756B4D6AA1
:101000003550D8A408D04D2EFBD7752FF9D7722FA5
:10101000F7D7326A316A356A3250766F3150736F62
:101020001200F29EEAEC0AF0F28E12000BD8766BF8
:10103000F29E11EC0CF07251D8B402D012EC0BF00D
:10104000F28E1200F29E22EC0BF0F28E120071EC86
:101050000BF01200819C819E1200818C818E120007
:10106000706F736B080E726F4D3473377051735F0E
:10107000D8B002D07327D8904D36722FF5D7746B45
:10108000080E726F7535733774377051735F776BF5
:10109000E86AD8A0773D745FD8B008D07051732744
:1010A000776BE86AD8B0773D7427D8907537722F80
:1010B000E9D71200801C266E26301F0B266E821C7C
:1010C0001F0B276E1200FF0FD8A4FDD71200001FC0
:1010D0001C1F1E1F1E1F1F1E1F1E1F1F1F1F004322
:1010E000003F3D3B3C61004442403E0F5B00003806
:1010F0002A001D10020000002C1F1E110300002EEC
:101100002D201205040000392F2114130600003190
:10111000302322150700000032241608090000338E
:101120002517180B0A000034352627190C0000007B
:10113000282B1A0D00003A361C1B002B0000006003
:10114000000000000E00006D006A67000000707172
:101150006E6B6C680154624E6F4A66694C00000009
:1011600000414900000000000000000000000001F4
:10117000806A816A826A896A8A6A8B6A0E0EC16E87
:1011800092685F0E946E090E936E040E816E7D0E52
:10119000CB6EC50EC26E806A816A4A0ECA6ECC6A78
:1011A000CA84F19CF2889D8238D8786B796B7A6B0F
:1011B0003E6A3F6A7FDF226A496A666B676B686BCB
:1011C000696B010E5C6E5D6E6E6B6F6B236A246AD9
:1011D000256A286A0A0E4E6E4F6A486A296A2F6A83
:1011E000386A396A20BA10D0156A1B6A146A1A6AFA
:1011F000136A196A010E126E186E116E176E106A5C
:10120000166AE4EC0DF0208A20BC798D20BE798F1F
:101210009E92356AF28CF28E12006F8E6EAEFED701
:10122000010E706EB30E716E430E726E200E606E04
:10123000506F0FEE18F0EE68E00EEE6E0FEE00F05D
:101240001FEE04F0400EEE6EE66E200EEE6EE66EC1
:101250006F6A6E50E00BD8A4FCD71C6A1200000025
:1012600000000000000000000000000000009038B6
:1012700000001D9500009800000000000056A0A18D
:1012800000A300000057A80000AB00000058B00009
:10129000B200B4000073B800BABB00000074C00014
:1012A000000000000000C800650000CD0000D00074
:1012B0000000000000000000720000007500000047
:1012C0000000000000000055004B47000000525392
:1012D00050004D4800000000460049454F00000006
:1012E0000000000000000000000000000000295085
:1012F000746F7437040E7427130ED8B0010FFA6E92
:101300007451F96E120005D006D009D016D030D035
:1013100050D0B7D84CD03EBC0FEC0DF048D0C450E4
:10132000225CD8B449D0C450226E4D6E640E82D86F
:10133000221C96DE75512A6E3AD02B6A0C0E4D6E29
:10134000AA0ECED9706F2A5CD8A00AD02B2A2B2ADD
:101350004D2EF6D72B062B06AB0EC2D9292A1CD050
:101360002B50D8B4F9D74D500108D8B4F5D71FD0B9
:10137000AB0EB6D9716FA80EB3D9746FA90EB0D9E0
:101380003C6E74512A5C4D6E71513C5C53D8745163
:10139000705D66DE75513C5C496EA80EA2D9495C51
:1013A000D8B0828AA90E9DD9495CD8A0829A292AF0
:1013B00012003EBCC8EC0DF0C284296A120000087D
:1013C000161E26252E363D3E46454E55660D151DEC
:1013D000242D2C353C43444D545B5A111C1B232BAC
:1013E00034333B424B4C520012531A22212A3231E1
:1013F0003A41494A5900392914070F171F272F3737
:101400003F474F6F6D6E635784615F6A7C57600022
:10141000676476658B8C8D00000E00000000135E03
:10142000560000777E6C757D6B737469727A70718B
:1014300079807F81736F4D507303F350756FF45053
:101440004D6E120078AF1200716FEA503D6EE95098
:101450003C6E010EEA6E3928E96E500EE95CD8B098
:10146000E96A3850E95CD8B407D0E950396E900E7B
:10147000E9267151EF6E798B3C50E96E3D50EA6E72
:101480001200152A155047D81B6E3C0E155CD8A0CB
:1014900041D0156A1B6A142A14503DD81A6E3C0EAE
:1014A000145CD8A037D0146A1A6A132A135033D8A0
:1014B000196E180E135CD8A02DD0136A196A122A5F
:1014C000125029D8186E11500F0BCE0FF66E100E59
:1014D000D8B0010FF76E000EF86E0800F550125CE0
:1014E000D8A018D0010E126E186E112A115013D800
:1014F000176E0D0E115CD8A00DD0010E116E176E77
:10150000102A105008D8166E640E105CD8A002D0B5
:10151000106A166A1200746F776B0A0E745DD8A099
:1015200003D0746F772BF9D77739F00B7411120051
:10153000100EE96E000EEA6E060E726F060EE926B8
:10154000EF50746F060EE95EE86A74B1010F74B370
:10155000020F74B5040F74B7080F74B90A0F74BB87
:10156000140F74BD280F74BF500FEF6EE92A722F4D
:10157000E5D712005F6A5E6A5C50726F63515F2646
:101580006251D8B0623D5E26722FF8D71200616BAF
:10159000606B5D50726F655161276451D8B0643DD6
:1015A0006027722FF8D712005F50756F5E504D6E36
:1015B0005C5056DD7551636F4D50626F1200615182
:1015C000756F60514D6E5D504BDD7551656F4D50BF
:1015D000646F1200746F766B93928192630E63EC6A
:1015E00008F093908190040E63EC08F09382EED89B
:1015F0007251D8B41200080E726F7451761BD6D88F
:101600007433722FFAD7761DD1D8010ECFD8756BEF
:1016100081A202D0752FFCD7756B81B202D0752FD5
:10162000FCD71200766B090E726FDDD873337351DD
:10163000761B722FFAD7D7D87231761BD4D8D8A0A0
:10164000766B1200746F766B949E829E630E63ECD1
:1016500008F0949C829C040E63EC08F0948EE1D810
:101660007251D8B41200080E726F7451761BC9D82B
:101670007433722FFAD7761DC4D8010EC2D8756B99
:1016800082AE02D0752FFCD7756B82BE02D0752F4B
:10169000FCD71200DCD8200EEF6EE92A752FFBD79D
:1016A0001200C60EC8DAD3D8010EEA6EEF50BCDACB
:1016B000E92A752FF9D7120079B9B2D2BCDA735181
:1016C000BDD0CE0EB8DA4B0EAFD2CF0EB4DA4D0E7F
:1016D000ABD2746F0A0E745DD8B0070F3A0F1200C8
:1016E0002B24A96EA69EA69CA680A8501200726FFD
:0C16F000630E63EC08F0722FFBD71200B1
:1017000000000000000000000000000000000000D9
:1017100000000000000000000000000000000000C9
:1017200000000000000000000000000000000000B9
:1017300000000000000000000000000000000000A9
:101740000000000000000000000000000000000099
:101750000000000000000000000000000000000089
:101760000000000000000000000000000000000079
:101770000000000000000000000000000000000069
:101780000000000000000000000000000000000059
:10179000D890346A81A202D0342EFCD781B0D88090
:1017A000346A81B202D0342EFCD71200756B81A24C
:1017B00002D0752FFCD7010BD8A49380D8B4939096
:1017C000756B81B202D0752FFCD712000C0E726FB0
:1017D000756B4D6A81A212004D2EFCD7752FFAD77A
:1017E000722FF8D71200D890756B82AE02D0752F89
:1017F000FCD782BCD880756B82BE02D0752FFCD717
:101800001200756B82AE02D0752FFCD7010BD8A4E5
:10181000948CD8B4949C756B82BE02D0752FFCD783
:101820001200080E726F756B4D6A82AE12004D2E5B
:10183000FCD7752FFAD7722FF8D71200706F703956
:101840000F0B47DFF1D970510F0B43DFEDD1200EA5
:10185000E96E010EEA6E080E756F120074AA04D0CC
:1018600051EC0EF03F8E12006F50776FF10B0809AC
:101870006F6E1FEE66F0746B080E1E6E3850395C8A
:10188000D8B411D0010EEA6E3828E96E500EE95C2A
:10189000D8B0E96AE950386E900EE926EF50E66E4E
:1018A000742B1E2EEBD7300E616E200E626E7451BB
:1018B000656E608677516F6E12001C50D8A413D0ED
:1018C00065500F0B1C6E1E6ED8B476EF0CF020EE38
:1018D00000F01FEE66F0E650DE6E1E2E6BEF0CF091
:1018E00005D820EE00F01C06DE501200609EA49089
:0218F0001200E4
:1019000000000000000000000000000000000000D7
:1019100000000000000000000000000000000000C7
:1019200000000000000000000000000000000000B7
:1019300000000000000000000000000000000000A7
:101940000000000000000000000000000000000097
:101950000000000000000000000000000000000087
:101960000000000000000000000000000000000077
:101970000000000000000000000000000000000067
:101980000000000000000000000000000000000057
:1019900073515908D8B404D073511208D8A406D092
:1019A0007A9B79B912007A8B3F8A12007351190819
:1019B000D8A404D07A9D79A97A8D12007351390880
:1019C000D8A406D07A9979B912007A893F88120092
:1019D00079B912007AA93F987AAB3F9A12007351F5
:1019E0001D08D8A404D03E9879A93E8812007351EE
:1019F0003608D8A404D03E9279A93E8212007351D1
:101A00002A08D8A404D03E9479A93E8412007351C8
:101A10003808D8A412003E9679A93E861200800E9E
:101A20000AD9170EE96E000EEA6E040E756F0FD814
:101A30002F0E09D00CD875510208200ED8A403D05F
:101A40001BA001D03A0EF0D8E92A752FF3D7EF503A
:101A5000F5D67AA108D07351716FE00E736F8E0EB8
:0A1A60002BDE7151736FCE0E27D6F6
:101B000000000000000000000000000000000000D5
:101B100000000000000000000000000000000000C5
:101B200000000000000000000000000000000000B5
:101B300000000000000000000000000000000000A5
:101B40000000000000000000000000000000000095
:101B50000000000000000000000000000000000085
:101B60000000000000000000000000000000000075
:101B70000000000000000000000000000000000065
:101B80000000000000000000000000000000000055
:101B9000C00E51D84950716F300E706F0A0E715DD2
:101BA000D8A003D0716F702BF9D770513DD8300E8B
:101BB00071253AD8DF0E38D8430E36D8200E34D8E7
:101BC0002D0E82BA2B0E30D0C80E77EC0BF0D890C9
:101BD000030E37D8320E77EC0BF05FD881885DD8D2
:101BE00081985BD89F0E63EC08F057D8818855D850
:101BF000819853D89F0E63EC08F0D890020E21D83C
:101C00009F0E63EC08F0280E16D8080E14D8010EAB
:101C100012D8320E77EC0BF0060E0DD80C0E0BD04E
:101C20000AD8200E01D8200E746F7439D88009D8D4
:101C30007451D88006D0746F7439D89002D874511A
:101C4000D890776F773B060E726F27D8818A25D898
:101C5000819A23D8722FF9D781881FD8818A1DD8FD
:101C6000819A1BD88198D8B0818817D8818A15D8D5
:101C7000819A13D8040E726F77378198D8B0818813
:101C80000CD8818A0AD8819A08D8722FF5D705D83E
:101C9000818803D8819801D812000000000000005C
:101CA0001200D5DDF86A1C0EF76EBC0EF66E090048
:101CB000F550EF6EE92A752FFAD7120020425553DE
:041CC0004F46462025
:101D0000CCD0010E98DFC00E756F1F0E726F450E9E
:101D1000AAD8736B756B200E726F00EE08F0040E7C
:101D20004D6EB8EC07F0716F7327B8EC07F0EE6EEC
:101D3000732771C0EEFF4D2EF4D775513F0B450E42
:101D4000D8B491D8570E5BD875A5819C75A5819E96
:101D500075B5818C75B5818E7251716F800E6BDF98
:101D600071516CDD75516ADD7151726F080E752706
:101D7000D8A4D3D7722B72ADD0D7B8EC07F0735D6F
:101D8000D8A42ED0766B756B200E726F2CD80950AC
:101D9000762708507627752B752BD8A4F7D7722B8A
:101DA00072ADF4D77651735DD8A41AD0C00E756F9A
:101DB0001F0E726F450E57D8086A096A0A6A0B6AC5
:101DC0000C6A0D6A0E6A0F6A570E19D8080E75272D
:101DD000D8A4FAD7200E28DF4F0E26DF4B0E24DFC3
:101DE000D86A01EF00F0F86A7251F76E7551F66E1D
:101DF0000900F550086E0900F550096E12005708E9
:101E0000D8A41200F66A00EE08F0EECFF5FF0D0040
:101E1000EECFF5FF0D00EECFF5FF0D00EECFF5FF95
:101E20000D00EECFF5FF0D00EECFF5FF0D00EECF6C
:101E3000F5FF0D00EECFF5FF0D00F86A7251F76E59
:101E40007551F66EA68EA69CA684D890F2BED88058
:101E5000F29E550EA76EAA0EA76EA6820000A6944B
:101E6000D8B0F28E12004508D8A41200F86A725158
:101E7000F76E7551F66EA68EA69CA684A688D8909D
:101E8000F2BED880F29E550EA76EAA0EA76EA6824D
:101E90000000A694D8B0F28E1200F26A000100EEA3
:101EA00021F0EE6AEAA2FDD79468216A82A805EFC4
:101EB00000F0C00E756F1F0E726F95DF085009108D
:0C1EC000D8A405EF00F0216805EF10F039
:101FC000FFFFFFFFFFFFFFFFFFFFFFFFFFFFFFFF21
:101FD000FFFFFFFFFFFFFFFFFFFFFFFFFFFFFFFF11
:101FE000FFFFFFFFFFFFFFFFFFFFFFFFFFFFFFFF01
:101FF000FFFFFFFFFFFFFFFFFFFFFFFFFFFFFFFFF1
:020000040030CA
:04000000FFFAFFFE06
:08000600FBFFFFFFFFFFFFFFFE
:0200000400F00A
:10000000000000000000003B01000000000F5B3C0E
:10001000001D2A603A10023D00382C1F1E11033EBD
:10002000002E2D201205043F00392F211413064005
:1000300000313023221507410038322416080942C6
:1000400000332517180B0A430034352627190C44B2
:100050000000282B1A0D62491D361C1B2B00614C19
:10006000504B4F4853550E52006D4D6A67464745F9
:1000700070716E6B6C68546500726F004E696674C7
:10008000737500004A000000000000565758000039
:10009000595A5C5D375E5F0345696666656C20335F
:1000A000204C43442020202028231B402139273482
:1000B0002F2F38294424521E64197814960FB40B3C
:0400C000DC06020058
:00000001FF
